{
  "contractName": "Relay",
  "abi": [
    {
      "stateMutability": "payable",
      "type": "fallback",
      "payable": true
    },
    {
      "inputs": [],
      "name": "logic_contract",
      "outputs": [
        {
          "internalType": "address",
          "name": "",
          "type": "address"
        }
      ],
      "stateMutability": "view",
      "type": "function",
      "constant": true
    },
    {
      "inputs": [],
      "name": "val",
      "outputs": [
        {
          "internalType": "uint256",
          "name": "",
          "type": "uint256"
        }
      ],
      "stateMutability": "view",
      "type": "function",
      "constant": true
    },
    {
      "inputs": [
        {
          "internalType": "address",
          "name": "_c",
          "type": "address"
        }
      ],
      "name": "setLogicContract",
      "outputs": [
        {
          "internalType": "bool",
          "name": "success",
          "type": "bool"
        }
      ],
      "stateMutability": "nonpayable",
      "type": "function"
    }
  ],
  "bytecode": "0x608060405234801561001057600080fd5b50610234806100206000396000f3fe6080604052600436106100385760003560e01c80633c6bb4361461009b5780634de94320146100c65780635aa4470f1461011d57610039565b5b6000600160009054906101000a900473ffffffffffffffffffffffffffffffffffffffff16905060405136600082376000803683855af43d806000843e816000811461008c576001811461009057610094565b8184fd5b8184f35b5050505050005b3480156100a757600080fd5b506100b0610186565b6040518082815260200191505060405180910390f35b3480156100d257600080fd5b506100db61018c565b604051808273ffffffffffffffffffffffffffffffffffffffff1673ffffffffffffffffffffffffffffffffffffffff16815260200191505060405180910390f35b34801561012957600080fd5b5061016c6004803603602081101561014057600080fd5b81019080803573ffffffffffffffffffffffffffffffffffffffff1690602001909291905050506101b2565b604051808215151515815260200191505060405180910390f35b60005481565b600160009054906101000a900473ffffffffffffffffffffffffffffffffffffffff1681565b600081600160006101000a81548173ffffffffffffffffffffffffffffffffffffffff021916908373ffffffffffffffffffffffffffffffffffffffff1602179055506001905091905056fea26469706673582212202c1a13f05a1353af36b41a9b36b847e23d78ef08eb83d809a8db33388d13e6af64736f6c63430006000033",
  "source": "pragma solidity ^0.6.0 < 0.6.13;\n\nimport './Storage.sol';\ncontract Relay is Storage {\n    address public logic_contract;\n   // bool private initialized = false;\n\n        function setLogicContract(address _c) public returns (bool success) {\n            logic_contract = _c;\n            return true;\n        }\n\n        fallback () payable external {\n            address target = logic_contract;\n            assembly {\n                let ptr := mload(0x40)\n                calldatacopy(ptr, 0, calldatasize())\n                let result := delegatecall(gas(), target, ptr, calldatasize(), 0, 0)\n                let size := returndatasize()\n                returndatacopy(ptr, 0, size)\n                switch result\n                case 0 { revert(ptr, size) }\n                case 1 { return(ptr, size) }\n            }\n        }\n}",
  "sourcePath": "/home/abinesh/StableCoin/contracts/Relay.sol",
  "compiler": {
    "name": "solc",
    "version": "0.6.0+commit.26b70077.Emscripten.clang"
  },
  "schemaVersion": "3.3.3",
  "updatedAt": "2021-02-15T15:03:09.342Z",
  "networkType": "ethereum",
  "devdoc": {
    "methods": {}
  },
  "userdoc": {
    "methods": {}
  }
}