{
  "contractName": "Stablecoinupgrade",
  "abi": [
    {
      "anonymous": false,
      "inputs": [
        {
          "indexed": true,
          "internalType": "address",
          "name": "tokenOwner",
          "type": "address"
        },
        {
          "indexed": true,
          "internalType": "address",
          "name": "spender",
          "type": "address"
        },
        {
          "indexed": false,
          "internalType": "uint256",
          "name": "tokens",
          "type": "uint256"
        }
      ],
      "name": "Approval",
      "type": "event"
    },
    {
      "anonymous": false,
      "inputs": [
        {
          "indexed": true,
          "internalType": "address",
          "name": "from",
          "type": "address"
        },
        {
          "indexed": true,
          "internalType": "address",
          "name": "to",
          "type": "address"
        },
        {
          "indexed": false,
          "internalType": "uint256",
          "name": "tokens",
          "type": "uint256"
        }
      ],
      "name": "Transfer",
      "type": "event"
    },
    {
      "inputs": [
        {
          "internalType": "uint256",
          "name": "total",
          "type": "uint256"
        }
      ],
      "name": "InitContract",
      "outputs": [],
      "stateMutability": "nonpayable",
      "type": "function"
    },
    {
      "inputs": [],
      "name": "name",
      "outputs": [
        {
          "internalType": "string",
          "name": "",
          "type": "string"
        }
      ],
      "stateMutability": "view",
      "type": "function",
      "constant": true
    },
    {
      "inputs": [],
      "name": "InitValue",
      "outputs": [
        {
          "internalType": "bool",
          "name": "",
          "type": "bool"
        }
      ],
      "stateMutability": "view",
      "type": "function",
      "constant": true
    },
    {
      "inputs": [],
      "name": "symbol",
      "outputs": [
        {
          "internalType": "string",
          "name": "",
          "type": "string"
        }
      ],
      "stateMutability": "view",
      "type": "function",
      "constant": true
    },
    {
      "inputs": [],
      "name": "NumAccts",
      "outputs": [
        {
          "internalType": "uint8",
          "name": "",
          "type": "uint8"
        }
      ],
      "stateMutability": "view",
      "type": "function",
      "constant": true
    },
    {
      "inputs": [],
      "name": "decimals",
      "outputs": [
        {
          "internalType": "uint8",
          "name": "",
          "type": "uint8"
        }
      ],
      "stateMutability": "view",
      "type": "function",
      "constant": true
    },
    {
      "inputs": [],
      "name": "totalSupply",
      "outputs": [
        {
          "internalType": "uint256",
          "name": "",
          "type": "uint256"
        }
      ],
      "stateMutability": "view",
      "type": "function",
      "constant": true
    },
    {
      "inputs": [
        {
          "internalType": "address",
          "name": "tokenOwner",
          "type": "address"
        }
      ],
      "name": "balanceOf",
      "outputs": [
        {
          "internalType": "uint256",
          "name": "",
          "type": "uint256"
        }
      ],
      "stateMutability": "view",
      "type": "function",
      "constant": true
    },
    {
      "inputs": [
        {
          "internalType": "address",
          "name": "_owner",
          "type": "address"
        },
        {
          "internalType": "address",
          "name": "delegate",
          "type": "address"
        }
      ],
      "name": "allowance",
      "outputs": [
        {
          "internalType": "uint256",
          "name": "",
          "type": "uint256"
        }
      ],
      "stateMutability": "view",
      "type": "function",
      "constant": true
    },
    {
      "inputs": [
        {
          "internalType": "address",
          "name": "receiver",
          "type": "address"
        },
        {
          "internalType": "uint256",
          "name": "numTokens",
          "type": "uint256"
        }
      ],
      "name": "transfer",
      "outputs": [
        {
          "internalType": "bool",
          "name": "",
          "type": "bool"
        }
      ],
      "stateMutability": "nonpayable",
      "type": "function"
    },
    {
      "inputs": [
        {
          "internalType": "address",
          "name": "delegate",
          "type": "address"
        },
        {
          "internalType": "uint256",
          "name": "numTokens",
          "type": "uint256"
        }
      ],
      "name": "approve",
      "outputs": [
        {
          "internalType": "bool",
          "name": "",
          "type": "bool"
        }
      ],
      "stateMutability": "nonpayable",
      "type": "function"
    },
    {
      "inputs": [
        {
          "internalType": "address",
          "name": "_owner",
          "type": "address"
        },
        {
          "internalType": "address",
          "name": "buyer",
          "type": "address"
        },
        {
          "internalType": "uint256",
          "name": "numTokens",
          "type": "uint256"
        }
      ],
      "name": "transferFrom",
      "outputs": [
        {
          "internalType": "bool",
          "name": "",
          "type": "bool"
        }
      ],
      "stateMutability": "nonpayable",
      "type": "function"
    }
  ],
  "bytecode": "0x608060405260016000806101000a81548160ff02191690831515021790555034801561002a57600080fd5b506110238061003a6000396000f3fe608060405234801561001057600080fd5b50600436106100b45760003560e01c806395d89b411161007157806395d89b41146102c2578063a9059cbb14610345578063ab225000146103ab578063d9d0a483146103cd578063dd62ed3e146103fb578063e701c45014610473576100b4565b806306fdde03146100b9578063095ea7b31461013c57806318160ddd146101a257806323b872dd146101c0578063313ce5671461024657806370a082311461026a575b600080fd5b6100c1610497565b6040518080602001828103825283818151815260200191508051906020019080838360005b838110156101015780820151818401526020810190506100e6565b50505050905090810190601f16801561012e5780820380516001836020036101000a031916815260200191505b509250505060405180910390f35b6101886004803603604081101561015257600080fd5b81019080803573ffffffffffffffffffffffffffffffffffffffff169060200190929190803590602001909291905050506104d4565b604051808215151515815260200191505060405180910390f35b6101aa6105c6565b6040518082815260200191505060405180910390f35b61022c600480360360608110156101d657600080fd5b81019080803573ffffffffffffffffffffffffffffffffffffffff169060200190929190803573ffffffffffffffffffffffffffffffffffffffff169060200190929190803590602001909291905050506105d0565b604051808215151515815260200191505060405180910390f35b61024e610a0e565b604051808260ff1660ff16815260200191505060405180910390f35b6102ac6004803603602081101561028057600080fd5b81019080803573ffffffffffffffffffffffffffffffffffffffff169060200190929190505050610a17565b6040518082815260200191505060405180910390f35b6102ca610a60565b6040518080602001828103825283818151815260200191508051906020019080838360005b8381101561030a5780820151818401526020810190506102ef565b50505050905090810190601f1680156103375780820380516001836020036101000a031916815260200191505b509250505060405180910390f35b6103916004803603604081101561035b57600080fd5b81019080803573ffffffffffffffffffffffffffffffffffffffff16906020019092919080359060200190929190505050610a9d565b604051808215151515815260200191505060405180910390f35b6103b3610cf8565b604051808215151515815260200191505060405180910390f35b6103f9600480360360208110156103e357600080fd5b8101908080359060200190929190505050610d0e565b005b61045d6004803603604081101561041157600080fd5b81019080803573ffffffffffffffffffffffffffffffffffffffff169060200190929190803573ffffffffffffffffffffffffffffffffffffffff169060200190929190505050610eed565b6040518082815260200191505060405180910390f35b61047b610f96565b604051808260ff1660ff16815260200191505060405180910390f35b60606040518060400160405280601d81526020017f537461626c65636f696e7570677261646520537461626c6520436f696e000000815250905090565b600081600360003373ffffffffffffffffffffffffffffffffffffffff1673ffffffffffffffffffffffffffffffffffffffff16815260200190815260200160002060008573ffffffffffffffffffffffffffffffffffffffff1673ffffffffffffffffffffffffffffffffffffffff168152602001908152602001600020819055508273ffffffffffffffffffffffffffffffffffffffff163373ffffffffffffffffffffffffffffffffffffffff167f8c5be1e5ebec7d5bd14f71427d1e84f3dd0314c0f7b2291e5b200ac8c7c3b925846040518082815260200191505060405180910390a36001905092915050565b6000600454905090565b600060016000600560019054906101000a900473ffffffffffffffffffffffffffffffffffffffff1673ffffffffffffffffffffffffffffffffffffffff1673ffffffffffffffffffffffffffffffffffffffff1681526020019081526020016000205482111561064057600080fd5b60036000600560019054906101000a900473ffffffffffffffffffffffffffffffffffffffff1673ffffffffffffffffffffffffffffffffffffffff1673ffffffffffffffffffffffffffffffffffffffff16815260200190815260200160002060003373ffffffffffffffffffffffffffffffffffffffff1673ffffffffffffffffffffffffffffffffffffffff168152602001908152602001600020548211156106eb57600080fd5b8160016000600560019054906101000a900473ffffffffffffffffffffffffffffffffffffffff1673ffffffffffffffffffffffffffffffffffffffff1673ffffffffffffffffffffffffffffffffffffffff168152602001908152602001600020540360016000600560019054906101000a900473ffffffffffffffffffffffffffffffffffffffff1673ffffffffffffffffffffffffffffffffffffffff1673ffffffffffffffffffffffffffffffffffffffff168152602001908152602001600020819055508160036000600560019054906101000a900473ffffffffffffffffffffffffffffffffffffffff1673ffffffffffffffffffffffffffffffffffffffff1673ffffffffffffffffffffffffffffffffffffffff16815260200190815260200160002060003373ffffffffffffffffffffffffffffffffffffffff1673ffffffffffffffffffffffffffffffffffffffff168152602001908152602001600020540360036000600560019054906101000a900473ffffffffffffffffffffffffffffffffffffffff1673ffffffffffffffffffffffffffffffffffffffff1673ffffffffffffffffffffffffffffffffffffffff16815260200190815260200160002060003373ffffffffffffffffffffffffffffffffffffffff1673ffffffffffffffffffffffffffffffffffffffff1681526020019081526020016000208190555081600160008573ffffffffffffffffffffffffffffffffffffffff1673ffffffffffffffffffffffffffffffffffffffff1681526020019081526020016000205401600160008573ffffffffffffffffffffffffffffffffffffffff1673ffffffffffffffffffffffffffffffffffffffff168152602001908152602001600020819055508273ffffffffffffffffffffffffffffffffffffffff16600560019054906101000a900473ffffffffffffffffffffffffffffffffffffffff1673ffffffffffffffffffffffffffffffffffffffff167fddf252ad1be2c89b69c2b068fc378daa952ba7f163c4a11628f55a4df523b3ef846040518082815260200191505060405180910390a3600190509392505050565b60006008905090565b6000600160008373ffffffffffffffffffffffffffffffffffffffff1673ffffffffffffffffffffffffffffffffffffffff168152602001908152602001600020549050919050565b60606040518060400160405280600781526020017f4564756f6e697800000000000000000000000000000000000000000000000000815250905090565b6000600160003373ffffffffffffffffffffffffffffffffffffffff1673ffffffffffffffffffffffffffffffffffffffff16815260200190815260200160002054821115610aeb57600080fd5b81600160003373ffffffffffffffffffffffffffffffffffffffff1673ffffffffffffffffffffffffffffffffffffffff1681526020019081526020016000205403600160003373ffffffffffffffffffffffffffffffffffffffff1673ffffffffffffffffffffffffffffffffffffffff1681526020019081526020016000208190555081600160008573ffffffffffffffffffffffffffffffffffffffff1673ffffffffffffffffffffffffffffffffffffffff1681526020019081526020016000205401600160008573ffffffffffffffffffffffffffffffffffffffff1673ffffffffffffffffffffffffffffffffffffffff168152602001908152602001600020819055508260026000600560009054906101000a900460ff1660ff1660ff16815260200190815260200160002060006101000a81548173ffffffffffffffffffffffffffffffffffffffff021916908373ffffffffffffffffffffffffffffffffffffffff1602179055506001600560009054906101000a900460ff1601600560006101000a81548160ff021916908360ff1602179055508273ffffffffffffffffffffffffffffffffffffffff163373ffffffffffffffffffffffffffffffffffffffff167fddf252ad1be2c89b69c2b068fc378daa952ba7f163c4a11628f55a4df523b3ef846040518082815260200191505060405180910390a36001905092915050565b60008060009054906101000a900460ff16905090565b6000809054906101000a900460ff16610d72576040517f08c379a0000000000000000000000000000000000000000000000000000000008152600401808060200182810382526040815260200180610fae6040913960400191505060405180910390fd5b60008060006101000a81548160ff02191690831515021790555080600481905550600454600160003373ffffffffffffffffffffffffffffffffffffffff1673ffffffffffffffffffffffffffffffffffffffff1681526020019081526020016000208190555033600560016101000a81548173ffffffffffffffffffffffffffffffffffffffff021916908373ffffffffffffffffffffffffffffffffffffffff160217905550600080905060008090505b8060ff16600560009054906101000a900460ff1660ff161115610ecc578160016000600260008560ff1660ff16815260200190815260200160002060009054906101000a900473ffffffffffffffffffffffffffffffffffffffff1673ffffffffffffffffffffffffffffffffffffffff1673ffffffffffffffffffffffffffffffffffffffff168152602001908152602001600020819055508080600101915050610e25565b506000600560006101000a81548160ff021916908360ff1602179055505050565b600060036000600560019054906101000a900473ffffffffffffffffffffffffffffffffffffffff1673ffffffffffffffffffffffffffffffffffffffff1673ffffffffffffffffffffffffffffffffffffffff16815260200190815260200160002060008373ffffffffffffffffffffffffffffffffffffffff1673ffffffffffffffffffffffffffffffffffffffff16815260200190815260200160002054905092915050565b6000600560009054906101000a900460ff1690509056fe537461626c65436f696e5570677261646520436f6e747261637420696e7374616e63652068617320616c7265616479206265656e20696e697469616c697a6564a2646970667358221220176701c43c1a38d044104aa71a86120e18a8ecf772a7267a4b332b2ddd1ab45c64736f6c63430006000033",
  "source": "pragma solidity ^0.6.0 < 0.6.13;\n\n//import './Storage.sol';\n\n/*\n*   This is an ERC20 Fungible, transferrable, stablecoin\n*/\n\ncontract Stablecoinupgrade {\n\tbool NotInitialized = true;\n    //ERC20 Required Variables\n    string constant token_name = \"Stablecoinupgrade Stable Coin\";\n    string constant token_symbol = \"Eduonix\";\n    uint8 constant token_decimal = 8;\n\n    mapping(address => uint256) balances;\n\tmapping(uint8 => address) Accounts;\n    mapping(address => mapping(address => uint256)) allowed;\n    uint256 totalSupply_;\n\tuint8 private AcctIndex;\n    address private owner;\n\n    /*\n    *   Standard event declaration required by ERC20 framework\n    */\n    event Approval(address indexed tokenOwner, address indexed spender, uint tokens);\n    event Transfer(address indexed from, address indexed to, uint tokens);\n//    event AcctUpdate(mapping(uint8 => address) Accounts, uint8 AcctIndex);\n    //event InflationToken(address owner, unit256 AcctIndex, uint256 newTokenSupply);\n\n    /*\n\t* constructor is run once when it is deployed for the first time\n\t* unlike the standard constructor practice in an OOP\n\t* Only the deploying account can enter a contract’s constructor. When the contract is * started up, this function allocates available tokens to the ‘contract owner’ account.\n\t*/\n\n\n/*\tconstructor () public {\n\t}\n*/\t\n//\tfunction InitContract(uint256 total) public view returns (uint256) {\n\tfunction InitContract(uint256 total) external {\n\t\trequire(NotInitialized, \"StableCoinUpgrade Contract instance has already been initialized\");\n        NotInitialized = false;\n\t\ttotalSupply_ = total;\n\t\tbalances[msg.sender] = totalSupply_;\n\t\towner = msg.sender;\n\t\tuint NewBal=0;\n\t\tfor (uint8 j=0; AcctIndex > j; j++){\n\t\t\tbalances[Accounts[j]] = NewBal;\n\t\t}\n\t\tAcctIndex = 0;\n\n\n    }\n\t/*\n\t* ERC20 Standard function but can be optional\n\t*/\n\tfunction name() public view returns (string memory) {\n\t\t\treturn(token_name);\n\t}\n\tfunction InitValue() public view returns (bool) {\n\t\t\treturn(NotInitialized);\n\t}\n\t/*\n\t* ERC20 Standard function but optional\n\t*/\n\tfunction symbol() public view returns (string memory) {\n\t\treturn(token_symbol);\n\t}\n\n\tfunction NumAccts() public view returns (uint8) {\n\t\treturn(AcctIndex);\n\t}\n\t\n\t/*\n\t* ERC 20 Standard but optional\n\t*/\n\tfunction decimals() public view returns (uint8) {\n\t\treturn(token_decimal);\n\t}\n\n\t/*\n\t* ERC20 required function declaration\n\t*/\n\tfunction totalSupply() public view returns (uint256) {\n\t\treturn totalSupply_;\n\t}\n\n    /*\n\t* ERC20 required function declaration\n\t*/\n\tfunction balanceOf(address tokenOwner) public view returns (uint) {\n//\t\trequire(false, \"StableCoinUpgrade Contract balanceof Function==========\");\n\n\t\treturn balances[tokenOwner]; \n\t}\n\n\t/*\n\t* ERC20 required function declaration\n\t*/\n\tfunction allowance(address _owner, address delegate) public view returns (uint) {\n  \t\treturn allowed[owner][delegate];\n\t}\n\n\t/*\n\t* ERC20 required function declaration\n\t*/\n\tfunction transfer(address receiver, uint numTokens) public returns (bool) {\n  \t\trequire(numTokens <= balances[msg.sender]);\n  \t\tbalances[msg.sender] = balances[msg.sender]-numTokens;\n  \t\tbalances[receiver] = balances[receiver] + numTokens;\n\t\t\n\t\tAccounts[AcctIndex] = receiver; // Alex\n\t\tAcctIndex = AcctIndex+1;\n\t\t//emit AcctUpdate(Accounts, AcctIndex);\n\n  \t\temit Transfer(msg.sender, receiver, numTokens);\n  \t\treturn true;\n\t}\n\n\t/*\n\t* @Params:\n\t* \tdelegate = spender\n\t*\tnumTokens = tokens to be transfered\n\t*/\n\tfunction approve(address delegate, uint numTokens)  public returns (bool) {\n\t\tallowed[msg.sender][delegate] = numTokens;\n  \t\temit Approval(msg.sender, delegate, numTokens);\n  \t\treturn true;\n\t}\n\n\t/*\n\t* ERC20 required function declaration\n\t*/\n\tfunction transferFrom(address _owner, address buyer, uint numTokens) public returns (bool) {\n  \t\trequire(numTokens <= balances[owner]);\n  \t\trequire(numTokens <= allowed[owner][msg.sender]);\n  \t\tbalances[owner] = balances[owner]-numTokens;\n  \t\tallowed[owner][msg.sender] = allowed[owner][msg.sender]-numTokens;\n  \t\tbalances[buyer] = balances[buyer]+numTokens;\n  \t\temit Transfer(owner, buyer, numTokens);\n\t\treturn true;\n\t}\n\n}",
  "sourcePath": "/home/abinesh/StableCoin/contracts/Stablecoinupgrade.sol",
  "compiler": {
    "name": "solc",
    "version": "0.6.0+commit.26b70077.Emscripten.clang"
  },
  "schemaVersion": "3.3.3",
  "updatedAt": "2021-02-17T19:48:45.745Z",
  "networkType": "ethereum",
  "devdoc": {
    "methods": {}
  },
  "userdoc": {
    "methods": {}
  }
}