{
  "contractName": "Storage",
  "abi": [
    {
      "inputs": [],
      "name": "val",
      "outputs": [
        {
          "internalType": "uint256",
          "name": "",
          "type": "uint256"
        }
      ],
      "stateMutability": "view",
      "type": "function",
      "constant": true
    }
  ],
  "bytecode": "0x6080604052348015600f57600080fd5b5060858061001e6000396000f3fe6080604052348015600f57600080fd5b506004361060285760003560e01c80633c6bb43614602d575b600080fd5b60336049565b6040518082815260200191505060405180910390f35b6000548156fea26469706673582212201c0a515fa2d15c031f1cb0982bf6917ca309d4e599cc331620771644b26ed92264736f6c63430006000033",
  "source": "pragma solidity ^0.6.0 < 0.6.13;\n\ncontract Storage {\n    uint public val;\n}",
  "sourcePath": "/home/abinesh/StableCoin/contracts/Storage.sol",
  "compiler": {
    "name": "solc",
    "version": "0.6.0+commit.26b70077.Emscripten.clang"
  },
  "schemaVersion": "3.3.3",
  "updatedAt": "2021-02-15T15:03:09.361Z",
  "networkType": "ethereum",
  "devdoc": {
    "methods": {}
  },
  "userdoc": {
    "methods": {}
  }
}